{
  "_format": "hh-sol-artifact-1",
  "contractName": "EventsEmit",
  "sourceName": "contracts/EventsEmit.sol",
  "abi": [
    {
      "anonymous": false,
      "inputs": [
        {
          "indexed": true,
          "internalType": "uint256",
          "name": "oldNumber",
          "type": "uint256"
        },
        {
          "indexed": true,
          "internalType": "uint256",
          "name": "newNumber",
          "type": "uint256"
        },
        {
          "indexed": false,
          "internalType": "uint256",
          "name": "addedNumber",
          "type": "uint256"
        },
        {
          "indexed": false,
          "internalType": "address",
          "name": "sender",
          "type": "address"
        }
      ],
      "name": "storedNumber",
      "type": "event"
    },
    {
      "inputs": [],
      "name": "favoriteNumber",
      "outputs": [
        {
          "internalType": "uint256",
          "name": "",
          "type": "uint256"
        }
      ],
      "stateMutability": "view",
      "type": "function"
    },
    {
      "inputs": [
        {
          "internalType": "uint256",
          "name": "newFavoriteNumber",
          "type": "uint256"
        }
      ],
      "name": "store",
      "outputs": [],
      "stateMutability": "nonpayable",
      "type": "function"
    }
  ],
  "bytecode": "0x608060405234801561001057600080fd5b50610264806100206000396000f3fe608060405234801561001057600080fd5b50600436106100365760003560e01c8063471f7cdf1461003b5780636057361d14610059575b600080fd5b610043610075565b60405161005091906100e8565b60405180910390f35b610073600480360381019061006e9190610134565b61007b565b005b60005481565b806000547fe304654f140653267f4d09df4968c896d7d6fd0b8e23c45f1db26a86cf930001836000546100ae9190610190565b336040516100bd929190610205565b60405180910390a38060008190555050565b6000819050919050565b6100e2816100cf565b82525050565b60006020820190506100fd60008301846100d9565b92915050565b600080fd5b610111816100cf565b811461011c57600080fd5b50565b60008135905061012e81610108565b92915050565b60006020828403121561014a57610149610103565b5b60006101588482850161011f565b91505092915050565b7f4e487b7100000000000000000000000000000000000000000000000000000000600052601160045260246000fd5b600061019b826100cf565b91506101a6836100cf565b92508282019050808211156101be576101bd610161565b5b92915050565b600073ffffffffffffffffffffffffffffffffffffffff82169050919050565b60006101ef826101c4565b9050919050565b6101ff816101e4565b82525050565b600060408201905061021a60008301856100d9565b61022760208301846101f6565b939250505056fea264697066735822122043ed7d1da42b05cfa53c9a100f4bca43727214a7d72bb8ef4804033758ac423464736f6c63430008180033",
  "linkReferences": {},
  "deployedLinkReferences": {}
}