{"contracts/EventsEmit.sol":{"EventsEmit":{"abi":[{"anonymous":false,"inputs":[{"indexed":true,"internalType":"uint256","name":"oldNumber","type":"uint256"},{"indexed":true,"internalType":"uint256","name":"newNumber","type":"uint256"},{"indexed":false,"internalType":"uint256","name":"addedNumber","type":"uint256"},{"indexed":false,"internalType":"address","name":"sender","type":"address"}],"name":"storedNumber","type":"event"},{"inputs":[],"name":"favoriteNumber","outputs":[{"internalType":"uint256","name":"","type":"uint256"}],"stateMutability":"view","type":"function"},{"inputs":[{"internalType":"uint256","name":"newFavoriteNumber","type":"uint256"}],"name":"store","outputs":[],"stateMutability":"nonpayable","type":"function"}],"devdoc":{"kind":"dev","methods":{},"version":1},"evm":{"bytecode":{"linkReferences":{},"object":"608060405234801561001057600080fd5b50610264806100206000396000f3fe608060405234801561001057600080fd5b50600436106100365760003560e01c8063471f7cdf1461003b5780636057361d14610059575b600080fd5b610043610075565b60405161005091906100e8565b60405180910390f35b610073600480360381019061006e9190610134565b61007b565b005b60005481565b806000547fe304654f140653267f4d09df4968c896d7d6fd0b8e23c45f1db26a86cf930001836000546100ae9190610190565b336040516100bd929190610205565b60405180910390a38060008190555050565b6000819050919050565b6100e2816100cf565b82525050565b60006020820190506100fd60008301846100d9565b92915050565b600080fd5b610111816100cf565b811461011c57600080fd5b50565b60008135905061012e81610108565b92915050565b60006020828403121561014a57610149610103565b5b60006101588482850161011f565b91505092915050565b7f4e487b7100000000000000000000000000000000000000000000000000000000600052601160045260246000fd5b600061019b826100cf565b91506101a6836100cf565b92508282019050808211156101be576101bd610161565b5b92915050565b600073ffffffffffffffffffffffffffffffffffffffff82169050919050565b60006101ef826101c4565b9050919050565b6101ff816101e4565b82525050565b600060408201905061021a60008301856100d9565b61022760208301846101f6565b939250505056fea264697066735822122043ed7d1da42b05cfa53c9a100f4bca43727214a7d72bb8ef4804033758ac423464736f6c63430008180033","opcodes":"PUSH1 0x80 PUSH1 0x40 MSTORE CALLVALUE DUP1 ISZERO PUSH2 0x10 JUMPI PUSH1 0x0 DUP1 REVERT JUMPDEST POP PUSH2 0x264 DUP1 PUSH2 0x20 PUSH1 0x0 CODECOPY PUSH1 0x0 RETURN INVALID PUSH1 0x80 PUSH1 0x40 MSTORE CALLVALUE DUP1 ISZERO PUSH2 0x10 JUMPI PUSH1 0x0 DUP1 REVERT JUMPDEST POP PUSH1 0x4 CALLDATASIZE LT PUSH2 0x36 JUMPI PUSH1 0x0 CALLDATALOAD PUSH1 0xE0 SHR DUP1 PUSH4 0x471F7CDF EQ PUSH2 0x3B JUMPI DUP1 PUSH4 0x6057361D EQ PUSH2 0x59 JUMPI JUMPDEST PUSH1 0x0 DUP1 REVERT JUMPDEST PUSH2 0x43 PUSH2 0x75 JUMP JUMPDEST PUSH1 0x40 MLOAD PUSH2 0x50 SWAP2 SWAP1 PUSH2 0xE8 JUMP JUMPDEST PUSH1 0x40 MLOAD DUP1 SWAP2 SUB SWAP1 RETURN JUMPDEST PUSH2 0x73 PUSH1 0x4 DUP1 CALLDATASIZE SUB DUP2 ADD SWAP1 PUSH2 0x6E SWAP2 SWAP1 PUSH2 0x134 JUMP JUMPDEST PUSH2 0x7B JUMP JUMPDEST STOP JUMPDEST PUSH1 0x0 SLOAD DUP2 JUMP JUMPDEST DUP1 PUSH1 0x0 SLOAD PUSH32 0xE304654F140653267F4D09DF4968C896D7D6FD0B8E23C45F1DB26A86CF930001 DUP4 PUSH1 0x0 SLOAD PUSH2 0xAE SWAP2 SWAP1 PUSH2 0x190 JUMP JUMPDEST CALLER PUSH1 0x40 MLOAD PUSH2 0xBD SWAP3 SWAP2 SWAP1 PUSH2 0x205 JUMP JUMPDEST PUSH1 0x40 MLOAD DUP1 SWAP2 SUB SWAP1 LOG3 DUP1 PUSH1 0x0 DUP2 SWAP1 SSTORE POP POP JUMP JUMPDEST PUSH1 0x0 DUP2 SWAP1 POP SWAP2 SWAP1 POP JUMP JUMPDEST PUSH2 0xE2 DUP2 PUSH2 0xCF JUMP JUMPDEST DUP3 MSTORE POP POP JUMP JUMPDEST PUSH1 0x0 PUSH1 0x20 DUP3 ADD SWAP1 POP PUSH2 0xFD PUSH1 0x0 DUP4 ADD DUP5 PUSH2 0xD9 JUMP JUMPDEST SWAP3 SWAP2 POP POP JUMP JUMPDEST PUSH1 0x0 DUP1 REVERT JUMPDEST PUSH2 0x111 DUP2 PUSH2 0xCF JUMP JUMPDEST DUP2 EQ PUSH2 0x11C JUMPI PUSH1 0x0 DUP1 REVERT JUMPDEST POP JUMP JUMPDEST PUSH1 0x0 DUP2 CALLDATALOAD SWAP1 POP PUSH2 0x12E DUP2 PUSH2 0x108 JUMP JUMPDEST SWAP3 SWAP2 POP POP JUMP JUMPDEST PUSH1 0x0 PUSH1 0x20 DUP3 DUP5 SUB SLT ISZERO PUSH2 0x14A JUMPI PUSH2 0x149 PUSH2 0x103 JUMP JUMPDEST JUMPDEST PUSH1 0x0 PUSH2 0x158 DUP5 DUP3 DUP6 ADD PUSH2 0x11F JUMP JUMPDEST SWAP2 POP POP SWAP3 SWAP2 POP POP JUMP JUMPDEST PUSH32 0x4E487B7100000000000000000000000000000000000000000000000000000000 PUSH1 0x0 MSTORE PUSH1 0x11 PUSH1 0x4 MSTORE PUSH1 0x24 PUSH1 0x0 REVERT JUMPDEST PUSH1 0x0 PUSH2 0x19B DUP3 PUSH2 0xCF JUMP JUMPDEST SWAP2 POP PUSH2 0x1A6 DUP4 PUSH2 0xCF JUMP JUMPDEST SWAP3 POP DUP3 DUP3 ADD SWAP1 POP DUP1 DUP3 GT ISZERO PUSH2 0x1BE JUMPI PUSH2 0x1BD PUSH2 0x161 JUMP JUMPDEST JUMPDEST SWAP3 SWAP2 POP POP JUMP JUMPDEST PUSH1 0x0 PUSH20 0xFFFFFFFFFFFFFFFFFFFFFFFFFFFFFFFFFFFFFFFF DUP3 AND SWAP1 POP SWAP2 SWAP1 POP JUMP JUMPDEST PUSH1 0x0 PUSH2 0x1EF DUP3 PUSH2 0x1C4 JUMP JUMPDEST SWAP1 POP SWAP2 SWAP1 POP JUMP JUMPDEST PUSH2 0x1FF DUP2 PUSH2 0x1E4 JUMP JUMPDEST DUP3 MSTORE POP POP JUMP JUMPDEST PUSH1 0x0 PUSH1 0x40 DUP3 ADD SWAP1 POP PUSH2 0x21A PUSH1 0x0 DUP4 ADD DUP6 PUSH2 0xD9 JUMP JUMPDEST PUSH2 0x227 PUSH1 0x20 DUP4 ADD DUP5 PUSH2 0x1F6 JUMP JUMPDEST SWAP4 SWAP3 POP POP POP JUMP INVALID LOG2 PUSH5 0x6970667358 0x22 SLT KECCAK256 NUMBER 0xED PUSH30 0x1DA42B05CFA53C9A100F4BCA43727214A7D72BB8EF4804033758AC423464 PUSH20 0x6F6C634300081800330000000000000000000000 "},"gasEstimates":{"creation":{"codeDepositCost":"122400","executionCost":"171","totalCost":"122571"},"external":{"favoriteNumber()":"2407","store(uint256)":"infinite"}},"methodIdentifiers":{"favoriteNumber()":"471f7cdf","store(uint256)":"6057361d"}},"storageLayout":{"storage":[{"astId":1538,"contract":"contracts/EventsEmit.sol:EventsEmit","label":"favoriteNumber","offset":0,"slot":"0","type":"t_uint256"}],"types":{"t_uint256":{"encoding":"inplace","label":"uint256","numberOfBytes":"32"}}},"userdoc":{"kind":"user","methods":{},"version":1}}}}