{
  "_format": "hh-sol-artifact-1",
  "contractName": "QuadraticFunding",
  "sourceName": "contracts/QuadraticFunding.sol",
  "abi": [
    {
      "inputs": [
        {
          "internalType": "address",
          "name": "initialOwner",
          "type": "address"
        },
        {
          "internalType": "uint256",
          "name": "_roundDuration",
          "type": "uint256"
        }
      ],
      "stateMutability": "nonpayable",
      "type": "constructor"
    },
    {
      "inputs": [
        {
          "internalType": "address",
          "name": "owner",
          "type": "address"
        }
      ],
      "name": "OwnableInvalidOwner",
      "type": "error"
    },
    {
      "inputs": [
        {
          "internalType": "address",
          "name": "account",
          "type": "address"
        }
      ],
      "name": "OwnableUnauthorizedAccount",
      "type": "error"
    },
    {
      "anonymous": false,
      "inputs": [
        {
          "indexed": true,
          "internalType": "uint256",
          "name": "projectId",
          "type": "uint256"
        },
        {
          "indexed": false,
          "internalType": "address",
          "name": "contributor",
          "type": "address"
        },
        {
          "indexed": false,
          "internalType": "uint256",
          "name": "amount",
          "type": "uint256"
        }
      ],
      "name": "ContributionMade",
      "type": "event"
    },
    {
      "anonymous": false,
      "inputs": [
        {
          "indexed": true,
          "internalType": "uint256",
          "name": "projectId",
          "type": "uint256"
        },
        {
          "indexed": false,
          "internalType": "uint256",
          "name": "amount",
          "type": "uint256"
        }
      ],
      "name": "MatchingDistributed",
      "type": "event"
    },
    {
      "anonymous": false,
      "inputs": [
        {
          "indexed": true,
          "internalType": "address",
          "name": "previousOwner",
          "type": "address"
        },
        {
          "indexed": true,
          "internalType": "address",
          "name": "newOwner",
          "type": "address"
        }
      ],
      "name": "OwnershipTransferred",
      "type": "event"
    },
    {
      "anonymous": false,
      "inputs": [
        {
          "indexed": true,
          "internalType": "uint256",
          "name": "projectId",
          "type": "uint256"
        },
        {
          "indexed": false,
          "internalType": "string",
          "name": "name",
          "type": "string"
        },
        {
          "indexed": false,
          "internalType": "address",
          "name": "owner",
          "type": "address"
        }
      ],
      "name": "ProjectCreated",
      "type": "event"
    },
    {
      "inputs": [],
      "name": "addToMatchingPool",
      "outputs": [],
      "stateMutability": "payable",
      "type": "function"
    },
    {
      "inputs": [
        {
          "internalType": "uint256",
          "name": "_projectId",
          "type": "uint256"
        }
      ],
      "name": "calculateMatchingAmount",
      "outputs": [
        {
          "internalType": "uint256",
          "name": "",
          "type": "uint256"
        }
      ],
      "stateMutability": "view",
      "type": "function"
    },
    {
      "inputs": [
        {
          "internalType": "uint256",
          "name": "_projectId",
          "type": "uint256"
        }
      ],
      "name": "calculateTotalAmount",
      "outputs": [
        {
          "internalType": "uint256",
          "name": "",
          "type": "uint256"
        }
      ],
      "stateMutability": "view",
      "type": "function"
    },
    {
      "inputs": [
        {
          "internalType": "uint256",
          "name": "_projectId",
          "type": "uint256"
        }
      ],
      "name": "contribute",
      "outputs": [],
      "stateMutability": "payable",
      "type": "function"
    },
    {
      "inputs": [
        {
          "internalType": "string",
          "name": "_name",
          "type": "string"
        }
      ],
      "name": "createProject",
      "outputs": [],
      "stateMutability": "nonpayable",
      "type": "function"
    },
    {
      "inputs": [],
      "name": "distributeMatching",
      "outputs": [],
      "stateMutability": "nonpayable",
      "type": "function"
    },
    {
      "inputs": [
        {
          "internalType": "uint256",
          "name": "_projectId",
          "type": "uint256"
        },
        {
          "internalType": "address",
          "name": "_contributor",
          "type": "address"
        }
      ],
      "name": "getContribution",
      "outputs": [
        {
          "internalType": "uint256",
          "name": "",
          "type": "uint256"
        }
      ],
      "stateMutability": "view",
      "type": "function"
    },
    {
      "inputs": [
        {
          "internalType": "uint256",
          "name": "_projectId",
          "type": "uint256"
        }
      ],
      "name": "getProjectDetails",
      "outputs": [
        {
          "internalType": "address",
          "name": "owner",
          "type": "address"
        },
        {
          "internalType": "string",
          "name": "name",
          "type": "string"
        },
        {
          "internalType": "uint256",
          "name": "totalContributions",
          "type": "uint256"
        },
        {
          "internalType": "uint256",
          "name": "contributorsCount",
          "type": "uint256"
        },
        {
          "internalType": "uint256",
          "name": "matchingAmount",
          "type": "uint256"
        },
        {
          "internalType": "uint256",
          "name": "totalAmount",
          "type": "uint256"
        }
      ],
      "stateMutability": "view",
      "type": "function"
    },
    {
      "inputs": [],
      "name": "matchingPool",
      "outputs": [
        {
          "internalType": "uint256",
          "name": "",
          "type": "uint256"
        }
      ],
      "stateMutability": "view",
      "type": "function"
    },
    {
      "inputs": [],
      "name": "owner",
      "outputs": [
        {
          "internalType": "address",
          "name": "",
          "type": "address"
        }
      ],
      "stateMutability": "view",
      "type": "function"
    },
    {
      "inputs": [],
      "name": "projectCount",
      "outputs": [
        {
          "internalType": "uint256",
          "name": "",
          "type": "uint256"
        }
      ],
      "stateMutability": "view",
      "type": "function"
    },
    {
      "inputs": [
        {
          "internalType": "uint256",
          "name": "",
          "type": "uint256"
        }
      ],
      "name": "projects",
      "outputs": [
        {
          "internalType": "address payable",
          "name": "owner",
          "type": "address"
        },
        {
          "internalType": "string",
          "name": "name",
          "type": "string"
        },
        {
          "internalType": "uint256",
          "name": "totalContributions",
          "type": "uint256"
        },
        {
          "internalType": "uint256",
          "name": "contributorsCount",
          "type": "uint256"
        }
      ],
      "stateMutability": "view",
      "type": "function"
    },
    {
      "inputs": [],
      "name": "renounceOwnership",
      "outputs": [],
      "stateMutability": "nonpayable",
      "type": "function"
    },
    {
      "inputs": [],
      "name": "roundEndTime",
      "outputs": [
        {
          "internalType": "uint256",
          "name": "",
          "type": "uint256"
        }
      ],
      "stateMutability": "view",
      "type": "function"
    },
    {
      "inputs": [],
      "name": "test",
      "outputs": [
        {
          "internalType": "uint256",
          "name": "",
          "type": "uint256"
        }
      ],
      "stateMutability": "view",
      "type": "function"
    },
    {
      "inputs": [
        {
          "internalType": "address",
          "name": "newOwner",
          "type": "address"
        }
      ],
      "name": "transferOwnership",
      "outputs": [],
      "stateMutability": "nonpayable",
      "type": "function"
    }
  ],
  "bytecode": "0x60806040523480156200001157600080fd5b5060405162001c4138038062001c41833981810160405281019062000037919062000244565b81600073ffffffffffffffffffffffffffffffffffffffff168173ffffffffffffffffffffffffffffffffffffffff1603620000ad5760006040517f1e4fbdf7000000000000000000000000000000000000000000000000000000008152600401620000a491906200029c565b60405180910390fd5b620000be81620000db60201b60201c565b508042620000cd9190620002e8565b600581905550505062000323565b60008060009054906101000a900473ffffffffffffffffffffffffffffffffffffffff169050816000806101000a81548173ffffffffffffffffffffffffffffffffffffffff021916908373ffffffffffffffffffffffffffffffffffffffff1602179055508173ffffffffffffffffffffffffffffffffffffffff168173ffffffffffffffffffffffffffffffffffffffff167f8be0079c531659141344cd1fd0a4f28419497f9722a3daafe3b4186f6b6457e060405160405180910390a35050565b600080fd5b600073ffffffffffffffffffffffffffffffffffffffff82169050919050565b6000620001d182620001a4565b9050919050565b620001e381620001c4565b8114620001ef57600080fd5b50565b6000815190506200020381620001d8565b92915050565b6000819050919050565b6200021e8162000209565b81146200022a57600080fd5b50565b6000815190506200023e8162000213565b92915050565b600080604083850312156200025e576200025d6200019f565b5b60006200026e85828601620001f2565b925050602062000281858286016200022d565b9150509250929050565b6200029681620001c4565b82525050565b6000602082019050620002b360008301846200028b565b92915050565b7f4e487b7100000000000000000000000000000000000000000000000000000000600052601160045260246000fd5b6000620002f58262000209565b9150620003028362000209565b92508282019050808211156200031d576200031c620002b9565b5b92915050565b61190e80620003336000396000f3fe6080604052600436106100f35760003560e01c8063aacef18b1161008a578063e081dbf911610059578063e081dbf9146102f2578063e40205d61461032f578063f2fde38b1461035a578063f8a8fd6d14610383576100f3565b8063aacef18b14610264578063c1cbbca71461028f578063c1d1af4b146102ab578063d8da5b2b146102b5576100f3565b806365c0f870116100c657806365c0f870146101ce578063675c4fe9146101e5578063715018a6146102225780638da5cb5b14610239576100f3565b8063107046bd146100f857806315ee4df11461013857806336fbad26146101615780635f8439e31461018c575b600080fd5b34801561010457600080fd5b5061011f600480360381019061011a9190610e4f565b6103ae565b60405161012f9493929190610f5c565b60405180910390f35b34801561014457600080fd5b5061015f600480360381019061015a91906110dd565b610486565b005b34801561016d57600080fd5b50610176610590565b6040516101839190611126565b60405180910390f35b34801561019857600080fd5b506101b360048036038101906101ae9190610e4f565b610596565b6040516101c596959493929190611162565b60405180910390f35b3480156101da57600080fd5b506101e36106b1565b005b3480156101f157600080fd5b5061020c60048036038101906102079190610e4f565b6107ef565b6040516102199190611126565b60405180910390f35b34801561022e57600080fd5b506102376108c5565b005b34801561024557600080fd5b5061024e6108d9565b60405161025b91906111ca565b60405180910390f35b34801561027057600080fd5b50610279610902565b6040516102869190611126565b60405180910390f35b6102a960048036038101906102a49190610e4f565b610908565b005b6102b3610b0c565b005b3480156102c157600080fd5b506102dc60048036038101906102d79190610e4f565b610b27565b6040516102e99190611126565b60405180910390f35b3480156102fe57600080fd5b5061031960048036038101906103149190611211565b610b65565b6040516103269190611126565b60405180910390f35b34801561033b57600080fd5b50610344610bc3565b6040516103519190611126565b60405180910390f35b34801561036657600080fd5b50610381600480360381019061037c9190611251565b610bc9565b005b34801561038f57600080fd5b50610398610c4f565b6040516103a59190611126565b60405180910390f35b60016020528060005260406000206000915090508060000160009054906101000a900473ffffffffffffffffffffffffffffffffffffffff16908060010180546103f7906112ad565b80601f0160208091040260200160405190810160405280929190818152602001828054610423906112ad565b80156104705780601f1061044557610100808354040283529160200191610470565b820191906000526020600020905b81548152906001019060200180831161045357829003601f168201915b5050505050908060020154908060030154905084565b60055442106104ca576040517f08c379a00000000000000000000000000000000000000000000000000000000081526004016104c19061132a565b60405180910390fd5b600360008154809291906104dd90611379565b919050555060006001600060035481526020019081526020016000209050338160000160006101000a81548173ffffffffffffffffffffffffffffffffffffffff021916908373ffffffffffffffffffffffffffffffffffffffff1602179055508181600101908161054f919061156d565b506003547fc0c54fed07481d0998e1446b2c13759606bf4f26b78306307413ac4c4309aa82833360405161058492919061163f565b60405180910390a25050565b60035481565b60006060600080600080600060016000898152602001908152602001600020905060006105c2896107ef565b905060008183600201546105d6919061166f565b90508260000160009054906101000a900473ffffffffffffffffffffffffffffffffffffffff1683600101846002015485600301548585848054610619906112ad565b80601f0160208091040260200160405190810160405280929190818152602001828054610645906112ad565b80156106925780601f1061066757610100808354040283529160200191610692565b820191906000526020600020905b81548152906001019060200180831161067557829003601f168201915b5050505050945098509850985098509850985050505091939550919395565b6106b9610c55565b6005544210156106fe576040517f08c379a00000000000000000000000000000000000000000000000000000000081526004016106f5906116ef565b60405180910390fd5b6000600190505b60035481116107e4576000610719826107ef565b90506001600083815260200190815260200160002060000160009054906101000a900473ffffffffffffffffffffffffffffffffffffffff1673ffffffffffffffffffffffffffffffffffffffff166108fc829081150290604051600060405180830381858888f19350505050158015610797573d6000803e3d6000fd5b50817f4b30f14da257e8f9372b727d54b681b51ac782634be7128aeb9a298816b37bab826040516107c89190611126565b60405180910390a25080806107dc90611379565b915050610705565b506000600481905550565b6000806001600084815260200190815260200160002090506000806000600190505b600354811161089657600061085c60016000848152602001908152602001600020600301546001600085815260200190815260200160002060020154610857919061170f565b610cdc565b9050808161086a919061170f565b84610875919061166f565b9350868203610882578092505b50808061088e90611379565b915050610811565b508160045482836108a7919061170f565b6108b1919061170f565b6108bb9190611780565b9350505050919050565b6108cd610c55565b6108d76000610d39565b565b60008060009054906101000a900473ffffffffffffffffffffffffffffffffffffffff16905090565b60045481565b600554421061094c576040517f08c379a00000000000000000000000000000000000000000000000000000000081526004016109439061132a565b60405180910390fd5b60008111801561095e57506003548111155b61099d576040517f08c379a0000000000000000000000000000000000000000000000000000000008152600401610994906117fd565b60405180910390fd5b600034116109e0576040517f08c379a00000000000000000000000000000000000000000000000000000000081526004016109d79061188f565b60405180910390fd5b600060016000838152602001908152602001600020905060008160040160003373ffffffffffffffffffffffffffffffffffffffff1673ffffffffffffffffffffffffffffffffffffffff1681526020019081526020016000205403610a5b57806003016000815480929190610a5590611379565b91905055505b348160040160003373ffffffffffffffffffffffffffffffffffffffff1673ffffffffffffffffffffffffffffffffffffffff1681526020019081526020016000206000828254610aac919061166f565b9250508190555034816002016000828254610ac7919061166f565b92505081905550817f0a4a91237423e0a1766a761c7cb029311d8b95d6b1b81db1b949a70c98b4e08e3334604051610b009291906118af565b60405180910390a25050565b3460046000828254610b1e919061166f565b92505081905550565b6000806001600084815260200190815260200160002090506000610b4a846107ef565b9050808260020154610b5c919061166f565b92505050919050565b60006001600084815260200190815260200160002060040160008373ffffffffffffffffffffffffffffffffffffffff1673ffffffffffffffffffffffffffffffffffffffff16815260200190815260200160002054905092915050565b60055481565b610bd1610c55565b600073ffffffffffffffffffffffffffffffffffffffff168173ffffffffffffffffffffffffffffffffffffffff1603610c435760006040517f1e4fbdf7000000000000000000000000000000000000000000000000000000008152600401610c3a91906111ca565b60405180910390fd5b610c4c81610d39565b50565b60025481565b610c5d610dfd565b73ffffffffffffffffffffffffffffffffffffffff16610c7b6108d9565b73ffffffffffffffffffffffffffffffffffffffff1614610cda57610c9e610dfd565b6040517f118cdaa7000000000000000000000000000000000000000000000000000000008152600401610cd191906111ca565b60405180910390fd5b565b6000806002600184610cee919061166f565b610cf89190611780565b90508291505b81811015610d33578091506002818285610d189190611780565b610d22919061166f565b610d2c9190611780565b9050610cfe565b50919050565b60008060009054906101000a900473ffffffffffffffffffffffffffffffffffffffff169050816000806101000a81548173ffffffffffffffffffffffffffffffffffffffff021916908373ffffffffffffffffffffffffffffffffffffffff1602179055508173ffffffffffffffffffffffffffffffffffffffff168173ffffffffffffffffffffffffffffffffffffffff167f8be0079c531659141344cd1fd0a4f28419497f9722a3daafe3b4186f6b6457e060405160405180910390a35050565b600033905090565b6000604051905090565b600080fd5b600080fd5b6000819050919050565b610e2c81610e19565b8114610e3757600080fd5b50565b600081359050610e4981610e23565b92915050565b600060208284031215610e6557610e64610e0f565b5b6000610e7384828501610e3a565b91505092915050565b600073ffffffffffffffffffffffffffffffffffffffff82169050919050565b6000610ea782610e7c565b9050919050565b610eb781610e9c565b82525050565b600081519050919050565b600082825260208201905092915050565b60005b83811015610ef7578082015181840152602081019050610edc565b60008484015250505050565b6000601f19601f8301169050919050565b6000610f1f82610ebd565b610f298185610ec8565b9350610f39818560208601610ed9565b610f4281610f03565b840191505092915050565b610f5681610e19565b82525050565b6000608082019050610f716000830187610eae565b8181036020830152610f838186610f14565b9050610f926040830185610f4d565b610f9f6060830184610f4d565b95945050505050565b600080fd5b600080fd5b7f4e487b7100000000000000000000000000000000000000000000000000000000600052604160045260246000fd5b610fea82610f03565b810181811067ffffffffffffffff8211171561100957611008610fb2565b5b80604052505050565b600061101c610e05565b90506110288282610fe1565b919050565b600067ffffffffffffffff82111561104857611047610fb2565b5b61105182610f03565b9050602081019050919050565b82818337600083830152505050565b600061108061107b8461102d565b611012565b90508281526020810184848401111561109c5761109b610fad565b5b6110a784828561105e565b509392505050565b600082601f8301126110c4576110c3610fa8565b5b81356110d484826020860161106d565b91505092915050565b6000602082840312156110f3576110f2610e0f565b5b600082013567ffffffffffffffff81111561111157611110610e14565b5b61111d848285016110af565b91505092915050565b600060208201905061113b6000830184610f4d565b92915050565b600061114c82610e7c565b9050919050565b61115c81611141565b82525050565b600060c0820190506111776000830189611153565b81810360208301526111898188610f14565b90506111986040830187610f4d565b6111a56060830186610f4d565b6111b26080830185610f4d565b6111bf60a0830184610f4d565b979650505050505050565b60006020820190506111df6000830184611153565b92915050565b6111ee81611141565b81146111f957600080fd5b50565b60008135905061120b816111e5565b92915050565b6000806040838503121561122857611227610e0f565b5b600061123685828601610e3a565b9250506020611247858286016111fc565b9150509250929050565b60006020828403121561126757611266610e0f565b5b6000611275848285016111fc565b91505092915050565b7f4e487b7100000000000000000000000000000000000000000000000000000000600052602260045260246000fd5b600060028204905060018216806112c557607f821691505b6020821081036112d8576112d761127e565b5b50919050565b7f46756e64696e6720726f756e642068617320656e646564000000000000000000600082015250565b6000611314601783610ec8565b915061131f826112de565b602082019050919050565b6000602082019050818103600083015261134381611307565b9050919050565b7f4e487b7100000000000000000000000000000000000000000000000000000000600052601160045260246000fd5b600061138482610e19565b91507fffffffffffffffffffffffffffffffffffffffffffffffffffffffffffffffff82036113b6576113b561134a565b5b600182019050919050565b60008190508160005260206000209050919050565b60006020601f8301049050919050565b600082821b905092915050565b6000600883026114237fffffffffffffffffffffffffffffffffffffffffffffffffffffffffffffffff826113e6565b61142d86836113e6565b95508019841693508086168417925050509392505050565b6000819050919050565b600061146a61146561146084610e19565b611445565b610e19565b9050919050565b6000819050919050565b6114848361144f565b61149861149082611471565b8484546113f3565b825550505050565b600090565b6114ad6114a0565b6114b881848461147b565b505050565b5b818110156114dc576114d16000826114a5565b6001810190506114be565b5050565b601f821115611521576114f2816113c1565b6114fb846113d6565b8101602085101561150a578190505b61151e611516856113d6565b8301826114bd565b50505b505050565b600082821c905092915050565b600061154460001984600802611526565b1980831691505092915050565b600061155d8383611533565b9150826002028217905092915050565b61157682610ebd565b67ffffffffffffffff81111561158f5761158e610fb2565b5b61159982546112ad565b6115a48282856114e0565b600060209050601f8311600181146115d757600084156115c5578287015190505b6115cf8582611551565b865550611637565b601f1984166115e5866113c1565b60005b8281101561160d578489015182556001820191506020850194506020810190506115e8565b8683101561162a5784890151611626601f891682611533565b8355505b6001600288020188555050505b505050505050565b600060408201905081810360008301526116598185610f14565b90506116686020830184611153565b9392505050565b600061167a82610e19565b915061168583610e19565b925082820190508082111561169d5761169c61134a565b5b92915050565b7f46756e64696e6720726f756e6420686173206e6f7420656e6465642079657400600082015250565b60006116d9601f83610ec8565b91506116e4826116a3565b602082019050919050565b60006020820190508181036000830152611708816116cc565b9050919050565b600061171a82610e19565b915061172583610e19565b925082820261173381610e19565b9150828204841483151761174a5761174961134a565b5b5092915050565b7f4e487b7100000000000000000000000000000000000000000000000000000000600052601260045260246000fd5b600061178b82610e19565b915061179683610e19565b9250826117a6576117a5611751565b5b828204905092915050565b7f496e76616c69642070726f6a6563742049440000000000000000000000000000600082015250565b60006117e7601283610ec8565b91506117f2826117b1565b602082019050919050565b60006020820190508181036000830152611816816117da565b9050919050565b7f436f6e747269627574696f6e206d75737420626520677265617465722074686160008201527f6e20300000000000000000000000000000000000000000000000000000000000602082015250565b6000611879602383610ec8565b91506118848261181d565b604082019050919050565b600060208201905081810360008301526118a88161186c565b9050919050565b60006040820190506118c46000830185611153565b6118d16020830184610f4d565b939250505056fea26469706673582212201e8a44fc3296130f2062f7d0e1ba49ea62e3aa06032f2e10e8e45740d4a7a2cf64736f6c63430008180033",
  "linkReferences": {},
  "deployedLinkReferences": {}
}